:10000000CDC8E7C824C9E5C8E4C8E3C8E2C8E1C868
:10001000E0C8DFC8DEC8DDC8DCC8DBC8DAC8D9C8BC
:10002000D8C8370039003700AA0037006D0F3700F5
:100030009725380000008203C5018403E20067268B
:10004000032200A000010492482080400412092BE2
:100050003D0058005A0058005B005800B500580099
:100060001023B1005B006F18035200109249463311
:1000700009249460350038003500AB0035006E0F60
:1000800035007F258203C3018403E20067260374E1
:10009000008490002080080000092492400ABA40A1
:1000A0003C003C003C008C0A78003C00F0003C0026
:1000B000671A02A000E220807888201058005900BA
:1000C00058005A005800B30058001123B1005A00DC
:1000D0006F1803BC00061249463261249460300058
:1000E00034003000A0003000900130001F091F03D1
:1000F0009001672603DE0080104008820801C008D6
:1001000020044104000035003C003500AF003500FC
:100110006F113500ED247C03C2017F03E1006726E7
:100120000306018002400002400000012492480AB8
:10013000BA002B002F002B005B002B0084205800FE
:100140002F008500850008015A0008015B006F2818
:10015000033201A40800000000642C40800000006D
:1001600006412F0009013300360033006C003300D4
:1001700007013300050833007F2D64006D00831FE5
:10018000036201049249263589249AD62492482B89
:1001900000CE002E00CC002E00C8012E00A00D774E
:1001A0001A028F011A56A6D695A9902C002D002C64
:1001B0000083002C00261D5A01B0005A01B2006BCA
:1001C0006403AB0160800000000800000020000014
:1001D0000412480412482A02000000002000000017
:1001E000800000104920104920801800BE0019002E
:1001F00050001900BE00190067101900BF126740B7
:1002000003EA0104925228928C4492894524534473
:10021000925228928C44928945245135003F0035F2
:1002200000AC003500781136000000C701D401672A
:1002300044031B02849000049000008000041249D3
:100240002A124000124000020000104924B032007F
:10025000360032009F00320003094603A6016734CE
:10026000024E02D400151025000544094001510139
:100270006726032200A00041049208249040000257
:10028000092B3D0067260374008400480402010422
:1002900080090012402ABA402E00CE002E00CB0169
:1002A0002E00770D771A02980205015181405440C3
:1002B00035003B003500AB003500FE087F03C1016F
:1002C000675802B002D4550000401554000155563D
:1002D000D455000040155400015555350036003501
:1002E000009C003500EE095303A9015503A80167DE
:1002F0008803DB0260820824104100124004800958
:100300002A020820904104004900120024A8082075
:1003100082410410012400480092A02082090410A8
:10032000400490012002481C005C001C00D5001C09
:1003300000D6001C00D30A77220227036808200099
:10034000EA020800100F004C0310002D0210004CB0
:10035000031000681477180245031A9A9B9A9A9919
:100360006726032200A00248049001201240048066
:10037000092B3D003200360032009E003200A201FF
:1003800032008B094B03A2016726037403808000AF
:1003900008124001C04000040920000030002D0177
:1003A00030008B023000E9033000B90B6F22029C51
:1003B0000322200001C888000040672603740084DF
:1003C00080002082490002000490492ABA40672632
:1003D000032200A480410012082490400002092B4F
:1003E0003D006726032200A002480490012000403F
:1003F0000492092B3D0031003400310066003100C9
:10040000FA003100FC00310049093100E92E640096
:100410003400640066007F1503F6034700233C01A7
:1004200059E0040E00EB010E00E7020E003E1367D8
:10043000180223045540425540416726032200A07C
:1004400082082410410410012082480B3D002F0037
:100450000B013200370032006E0032000901320019
:1004600007083200552F64003900831F034E04042F
:100470009249263472249AD1C8924832003200320E
:100480000063003200FB003200FC003200A50532A0
:1004900000062B6600310066006200732E037B04A9
:1004A000470000000004646200E0002B23100700F6
:1004B00000806726032200A0100004824920020069
:1004C0000490492B3D00350035003500A000350073
:1004D000A1064603A601673402C604D5501511656E
:1004E00054054459550151153100CD003100CE005D
:1004F0003100C80131006A0E771A02E8041A56A5C5
:10050000D695A940300096003200950032005B017C
:100510003200780B670E0204052A5DA96067260386
:100520002200A002400490092002000490492B3DC3
:10053000006726032200A400490092002002000464
:1005400090492B3D000E00EB010E00E7020E003A31
:100550001467180245054550024550010300EA039F
:100560000300D7050300F30B000B025C0505605484
:100570000D00BD010D00A2020D00A3020D00E71148
:1005800063180270056A8283AA828155005900555A
:1005900000080155004A0D5B015E015C015E016FC0
:1005A00034038B056090402080402090412A024116
:1005B00000820100824104802E002C0131002A01BA
:1005C000310088023100E5033100F00B771C03B8DD
:1005D000050CB2CA49130B2CB29244B067260374BF
:1005E000008000002492090082000410492ABA0009
:1005F0000D047810100400005F0202F00510672659
:10060000032200A002010490482000000492492B1C
:100610003D009800D7019A009C009A00D5019A00ED
:10062000830B5F0A02120616E5900F00ED01100021
:10063000ED011000BA02100086057310022A06169A
:10064000AB56A90300F0010300E9020300D0050046
:100650001102430641241241006726037400800002
:10066000002482490480400012092ABA003700376A
:10067000003700A7003700E11137002225C001BD77
:1006800001C201BC016728036D0680920000920040
:100690000010400482092A97485B0058005B000B59
:1006A000015B00250E69016601690167017730036E
:1006B0009906600000001249249242800000001256
:1006C0004924924054005800540005015400200D64
:1006D0005B015B015B015C01673403C4066082005F
:1006E0002080410490412A02080082010412410442
:1006F000801000460311002E02110047031100B8BC
:10070000187F1802F1061A9A9B9A9A997310022A76
:100710000626AB66AA3100350031006800310006BC
:10072000013100080131005E1F640067007F0E0385
:100730001507401A2300D08067260374008000004C
:100740002092490002400490092ABA0070006B0010
:1007500071006B00A502CE0A6704024C07266726CB
:100760000374008000002410490082000410492A0C
:10077000BA0036016502360166026E0278205F0417
:100780000272072632009E003500330035009C00BF
:1007900035008408672202840725599A5AE956666B
:1007A00096A06F1803520010925424B309254248B2
:1007B000672202840725999A5AE9666696A06726F9
:1007C0000374008000002490410082000410492A34
:1007D000BA002F000B013200370032006E003200E9
:1007E0000901320007083200552F64003900640007
:1007F0007000831D03D207049249263251CBD64A9A
:1008000039722F000B013200370032006E003200C7
:100810000901320007083200552F64007000831F61
:1008200003020804924926324A389AC928E24867E6
:1008300028036D06848200048200008200041049AF
:100840002A87415E00D9015E00D80266006506670E
:100850000C024308412412310007013200360032F5
:10086000006C00320007013200ED073200D7276428
:10087000006E00671F035708049249263449389ACE
:10088000D124E2480400F3010400EE0204008713BF
:100890000017028408055406055404001702840852
:1008A0001454061454040E00EB010E00E7020E006F
:1008B0004611671802A608454456454455050038B8
:1008C000020500560305008713001702BD085545B1
:1008D000465545447310022A06195759556F1A0395
:1008E000BC0004924928C649249251800600360271
:1008F0000600530306006215001702EC0805454682
:100900000545440E004B0310002B02100049031054
:10091000002F1367180203092A9A9BAA9A9A831F29
:10092000034E04049249263251C89AC94722480608
:10093000009D0306003B05060032080600E30A009E
:100940000C022F09900D0035003B003500AA003540
:100950000007117C03C0017D03C001674403470900
:100960006000002480090492000000492A00000071
:10097000920024124800000124803700390037001B
:10098000A700370040117F03C0018103BF01674406
:10099000037A096000002010090402010090482A2F
:1009A000000000804024100804024120801A00B991
:1009B000001B0050001B00B9001B0099106750027B
:1009C000AD091A5A65679A659A9B9A5A65679A653E
:1009D0009A9B9A5A6565330038003300A2003300B1
:1009E0001A0B5003AE015203AD01634403D60960F4
:1009F00082082410410482400010092A0208209035
:100A000041041209000040248010002F0210004F02
:100A10000310000C1711002F0211004F0377180369
:100A2000090A0E38218226208248231000E4011092
:100A300000E2021000E3021000BB126718022B0A4A
:100A40006AA003AAA001300034003000A0003000EA
:100A50009001300048081F039001672603460A846E
:100A6000824008924801C2412004492400401000FD
:100A7000530311002A021100520311005303110005
:100A8000EF127718036E0A45865B05C65B05B04218
:100A90000E00EB010E00E7020E000614671802902C
:100AA0000A5550025550010E00EB010E00E7020EF0
:100AB000000A13671802A70A4554424554416726A5
:100AC00003DE0084104008820801C20820044104AB
:100AD0000040030009000300130003001D00030091
:100AE00027000300F026001D03D20A6000880002E0
:100AF000E300044000160F008A000F00BE010F0043
:100B00005D020F00A519671E02F60A8001002E0083
:100B10000400A03000320030009400300095003016
:100B2000009005631602130B48800E220010570038
:100B30007F025800130158007F026F0B022E0B1525
:100B40009A94030008000300120003001800030039
:100B500026000300F126001D03420B608088000080
:100B6000E304044000067310022A062AAB6AAA0DA9
:100B70000060020E008D000E0028010E00C3010E61
:100B8000005E020E0060020E003F18671E036F0B2E
:100B900004944B24953524A25924A8407310022AAA
:100BA0000619AB59A9030008000300120003001C3A
:100BB000000300BB31001B02A50B800100B85510DB
:100BC000082E0035002E006A002E0004012E00DEE3
:100BD000052E00D22A5D0035005D006A006F2E03ED
:100BE000C10B468000000003445200000C222290FA
:100BF00000006080001B02A50B800400B85540086F
:100C00000E00EB010E00E7020E0042126718020010
:100C10000C555006555005671802900A4554024578
:100C200054012C002F032D0010022D002F032D0046
:100C30008813731802220C299A9BA99A9A0E00EB2A
:100C4000010E00E7020E00F9166718023D0C444041
:100C500002444001672603740084100020900100C4
:100C600080400412092ABA403000F60032002F00FA
:100C700032005E003200F5003200D0053200DA2A80
:100C800064002F0064005E00673B03680C0B124990
:100C90002492498D1C8927FCAB472249FF2AD1C8E1
:100CA000927FC90010004F0310000C1711002F0293
:100CB00011004E0311004F03771803A40C6208A023
:100CC0008A19040840830E00EB010E00E7020E00B3
:100CD0000E12671802C60C4554164554151800B973
:100CE000001B004E001B00B7001B00060667160223
:100CF000DD0C19955E665550380037003800A800A5
:100D00003800F212BF01C501C001C501674403F8F4
:100D10000C6410000410000080000412492A1040E6
:100D200000104000020000104924903100340031CE
:100D300000FA003100FC00310049093100E92E645D
:100D4000003400640066007F15032B0D22801A1802
:100D50000110C002370037003700A70037009F138B
:100D600037002225C001BD01C201BC016728035420
:100D70000D8002000002000492000000492A9748FA
:100D80007F0E031507468023340080831F034E0423
:100D9000049249263471449AD1C512483000620049
:100DA0003000C400610044038B0184018B0785017E
:100DB000434D039C0D849201241200048008099283
:100DC0004804904800120020264920124120004883
:100DD00000820300090003001F0003002A00030033
:100DE000CD2A001D02D20D8001002E0004008031AA
:100DF000003500310006013100080131005E1F643A
:100E00000067007F0E03EF0D22001A1000402C0037
:100E10002F032D0010022D002F032D0069127318CF
:100E2000020E0E2A9A9BAA9A9A0E00EB010E00E778
:100E3000020E003615671802290E4444024444018C
:100E400013004E0015001B0015004D001500C90EC3
:100E500016000000675203400E09249249124A24EA
:100E600092492492492494896924924922494492BE
:100E70004924924924929130673403C406640009DE
:100E80002400092400092A10002490002490002442
:100E900090675203400E04A4924922494892492483
:100EA00092492494896894924924492912492492A8
:100EB00049249291300D00EA010D00E5020D00E693
:100EC000020D004315631802B50E6AA00BAAA00913
:100ED0003200360032009E0032009701320069086D
:100EE0004B039701672603D00E80104008924801FB
:100EF000C008200449240000370038003700A8004B
:100F00003700590F380000007203C6017403C40192
:100F1000674403F80E848000208249000200049098
:100F2000492A920000820924000800124124B06777
:100F300026032200A00000049249200000049249E8
:100F40002B3D00671802900A4440564440559800D3
:100F5000D7019A009C009A00D5019A000E039A00CE
:100F6000830B5F08034E0F05C45932003200320074
:100F700063003200FB003200FC003200A9053200A1
:100F8000062B6600310066006200672D036A0F477A
:100F900000000000008C8C4003F1EB231000FC7477
:100FA000672D036A0F4700000000008C8C4003E3AC
:100FB000EB231000F8F40E00EB010E00E7020E0028
:100FC0004A10671802B60F55554255554100170291
:100FD0008408055006055004671802A608555412E7
:100FE0005554110D00EA010D00E5020D00E6020D59
:100FF000003317631802E30F400A83800A8106005A
:1010000036020600530306004414001702FE0F5474
:1010100045465445446726032200A0000004924937
:101020002400000092492B3D0056005B0057005AF7
:10103000005700B4005700A42258000000AE005A28
:10104000006F1603291014954A359A4AA51B00040F
:10105000000C040400E3050400BD0B000B024F105C
:10106000056054000000000E008D000E00C4010E4B
:10107000005F020E00A618001E03631064924A244B
:1010800092E32492512496004E017E019F01B0000C
:10109000BF01FE012F025E02700266003E00840264
:1010A000A402C002F200EF02370355036003880375
:1010B000AC03BA03CE031E01E20316042F043A0464
:1010C0006A049B04B204D604F80414051D05310516
:1010D0005105680580059F05CC05DC05F805FE0572
:1010E00022063A064F0659068506AD06D8060107C0
:1010F0000C072D07380758075E077E079407A207DD
:10110000B007BE07F2071E082F084F0873089008A3
:101110009B08B208C908D408DD08F80813091E099D
:101120003F095B098E09BD09EA091D0A3B0A5A0AF3
:10113000820A9C0AB30ABE0AE60A060B230B3A0B84
:10114000560B660B8B0B9C0BB50BDD0BF40B0C0CD1
:10115000170C320C490C540C880CB80CD20CED0C4A
:101160000C0D470D6C0D800D8B0DB00DE20D030EB7
:101170001E0E350E540E780E910EC50EE40E100F95
:101180002F0F430F620F8A0FA00FC20FCD0FD80F82
:10119000F30F0A10151041105B10771011241FBEB9
:1011A000CFE5D2E0DEBFCDBF10E0A0E6B0E0ECE8D6
:1011B000F4E102C005900D92A236B107D9F710E014
:1011C000A2E6B0E001C01D92A636B107E1F725D135
:1011D0005BC116C70F931F93082FA0916400B091B5
:1011E0006500F0916300E091620010E040E050E0A3
:1011F000682F70E0615070401CC0EE2321F4FD01A7
:101200001196F491E8E0E1508F2F90E00E2E02C08D
:10121000959587950A94E2F7817090709B01241B45
:10122000350B02C0880F991F2A95E2F7182B4F5FE4
:101230005F4F401710F3B0936500A0936400F093E4
:101240006300E0936200812F1F910F9108951F9218
:101250000F920FB60F9211240F900FBE0F901F9098
:10126000189508C020E0000000002F5F2C30D9F74F
:10127000000001970097B1F7089510BE13BEC29AFF
:1012800088E10FB6F89481BD11BC0FBE88EE93E0E3
:10129000E8DF80E385BF88950895CF93DF939C01B5
:1012A000EB0112BE18BE442329F082E480BF81E026
:1012B00083BF01C0C298C901D4DF10BE13BEC29A59
:1012C000CE01CFDFDF91CF910895D79A88EB9BE0D5
:1012D000C8DFD79808951F93182F04C0A89588E9F0
:1012E0009AE3BFDFF2DF1150C9F7A8951F91089567
:1012F0007F928F929F92AF92BF92CF92DF92EF92A6
:10130000FF920F931F93CF93DF9388EA91E6A9DFB3
:10131000A09061007A2C769476947694C8E8D0E117
:1013200000E081E0882E912C49C0802F672DA0D04D
:10133000940102C0220F331F8A95E2F7822F815059
:1013400000FD822B8ABBA895FE01459154919A011C
:101350002F5F3F4FFA01D490D6BEC9010196F90123
:10136000B490FC01C4900196FC01E590F4904B5FB1
:101370005F4F509365004093640010E016C08C2DC1
:1013800029DF880F880F90E0F701E80FF91F2591FA
:101390003491FC013296EE0DFF1D6591749140E091
:1013A000D11041E0C90179DF1F5F1B1540F3109296
:1013B000620088E893E155DF0F5F22960A1508F472
:1013C000B4CF1ABA8CED9FEF4CDF8CED9FEF49DF65
:1013D00084E081DFDF91CF911F910F91FF90EF901B
:1013E000DF90CF90BF90AF909F908F907F900895A7
:1013F0000F931F93082F10E00BC0D79A80E593EC52
:1014000030DFA895D79880E593EC2BDFA8951F5F78
:10141000101798F31F910F9108951F93CF93DF93A7
:101420001BBA1FBC1EBC10BE13BE94B714BE88E10D
:1014300081BD11BC84E087BB88BBDE9880E882BB9D
:101440008BB780618BBF789492FF03C082E0D0DFBE
:1014500014DF88E893E105DFC8E1D0E019E20DDF91
:101460000FB6F894A895C1BD0FBE11BD41DFF7CFEF
:10147000991B79E004C0991F961708F0961B881FE6
:0C1480007A95C9F780950895F894FFCF85
:02148C00008AD4
:00000001FF
