:10000000BDCDD7CDAECFD5CDD4CDD3CDD2CDD1CD25
:10001000D0CDCFCDCECDCDCDCCCDCBCDCACD3C006E
:100020003C003C008C0A78003C00F0003C00671A61
:10003000021E00E220807888201032006400320026
:10004000C80032002003900190014534023A00D5E7
:1000500041110014446D5411100144452A002E0032
:100060002A0085002A005F1D5B01B0005B01B10022
:100070006B64035C0060800000000800000020004A
:10008000000412480412482A020000000020000068
:1000900000800000104920104920801A00B9001B80
:1000A0000050001B00B9001B00C5116740029B00F7
:1000B000155A656795659A9B955A656795659A99EE
:1000C000370039003700AA0037006D0F3700972539
:1000D000380000008203C5018403E200672603C0E4
:1000E00000A000010492482080400412092B3D002A
:1000F00058005A0058005B005800B5005800102303
:10010000B1005B006F1803F00010924946330924D8
:10011000946032003E003200AC003200BD11C001DC
:10012000D201C201D101674403120164900004901E
:10013000000080000412492A124000124000020010
:100140000010492490310031003100320031009A12
:10015000013100FE0131004B2F6522034501099456
:10016000532994D985328A65329B2038003A003869
:1001700000AA003800AB0F8203C2018403C10167EB
:1001800044036B016400490092002082010410487E
:100190002A100124024800820804104120903500F2
:1001A00038003500AB0035006E0F35007F25820327
:1001B000C3018403E2006726039E0184900020802F
:1001C000080000092492400ABA4033003700330087
:1001D0009E003300EE084903A301673402CA01D42C
:1001E0000015102500054409400151013700370072
:1001F0003700AC003700C70F3700842438000000F8
:100200007403BA017503E100672603EC01A0004105
:100210000492082490400002092B3D005100570031
:100220005100FE005100D00C4B0150014B01510117
:100230006734031C026412082400082010092A10E5
:10024000482090002080402490350037003500A7DA
:100250000035000009350099247D03C0017F03BFEC
:100260000167300349028012400400090012412452
:10027000820100104824AAE8672603C000A00009F4
:100280000492402480000012492B3D00672603C0E1
:1002900000A080010412482400000092492B3D0078
:1002A0001C005A001C00D3001C00CB09732202A0C2
:1002B0000254041000950104001038003900380081
:1002C000AF003800361038001B258203E30082039C
:1002D000C101632603BA02A00248049001208040B5
:1002E0000412092A3800330037003300A10033001C
:1002F000060A5103AD015103AE01678803E60260AF
:1003000082082410410012400480092A020820902B
:100310004104004900120024A80820824104100171
:100320002400480092A0208209041040049001207B
:10033000024828002A0028007C002800F911450105
:10034000A3004601A30067640332036010400480E9
:10035000090000000010002010002080000A004169
:1003600000120024000000004000804000820000D5
:10037000003C0037003C00A3003C0003103C00E2BE
:10038000253D0000008203CD018403E600672603BB
:100390007103A010000482492002000490492B3D03
:1003A00000300034003000A0003000900130001F09
:1003B000091F039001672603A103801040088208EB
:1003C00001C00820044104000035003C003500AFA6
:1003D0000035006F113500ED247C03C2017F03E17D
:1003E00000672603C9038002400002400000012488
:1003F00092480ABA0030003400300099013000F809
:10040000013000DD28632C02F503A11861A1187AE0
:1004100011861A11863A003C003A00090A76003C1F
:1004200000ED003C00EE003C00671A03150469244F
:10043000104003124820800054005A005400080164
:1004400054008E0D5A015E015B015E016734033872
:10045000046492490000000002492A124924000065
:100460000000092490310031003100320031009A3F
:10047000013100FE01310026316522036504099433
:100480005365329985328A6CA653204534023A006E
:10049000C541111014446C54111101444476007983
:1004A0000076000F0176008E1202010F0167240210
:1004B0009D04C44514046C4451404458005A0058EB
:1004C000005B005800B500B1005B00B10010236F65
:1004D0001603BB040C925346164929A2C067260393
:1004E0009E018000410412082000000492492ABAAB
:1004F000005800590058005A005800B30058001125
:1005000023B1005A006F1803F10406124946326104
:100510002494606726039E01800041041208208015
:10052000000412492ABA0028002B0028007A00286B
:1005300000B1144E019C0050019B00676403270525
:10054000601040048009000000001000208200209C
:1005500000000A0041001200240000000040008258
:10056000080080000000672603C000A0004104923C
:10057000082492480000012B3D0060005D006100EE
:100580005D0061001F016100670D5F16027A0516AC
:10059000665D599950520045025400FA00540044D7
:1005A00002550000006B0B029505159A9C27000769
:1005B00001A400A3000202A4005F0B02AD05804568
:1005C00000632603BA02A410400082092080400480
:1005D00012092A384071006500B002930A630402D0
:1005E000D50511710065007100C9007100930A639F
:1005F0000802E30506043A003E003A00BA0A750014
:100600003E00F2003E00331A02F605E220807888B0
:100610002000360041003600AA00360003103600E4
:10062000DC218303E2008303A5016326031206A4F1
:1006300080002082490002000490492A38402B00A3
:1006400078002B0079002B00A30D83002D00631888
:10065000023E06157556557554330033003300A01D
:10066000003300001033002925AF01B4017303DB10
:10067000006326035906849000000249208000048C
:1006800012492ABA403A0035003A00A7003A008ED3
:10069000113A00CF25C701C101C801C10167280374
:1006A00085068090000090000492000000492A977F
:1006B000483300150134003500340069003400155A
:1006C000013400DF09340009326700360087170360
:1006D000B1060B126344926B449250632603BA0234
:1006E000A000400492092492092000400A380063C7
:1006F0002603590680000004924924920000004914
:100700002ABA00120156031201C207570B0203074F
:10071000141140500058005000FE005000A60E6713
:10072000014B014730021307C00001555552C0006C
:1007300001555550632603BA02A0100124824800D7
:1007400002400490092A3800632603BA02A49048A4
:100750000002012080400412092A38403300E800DA
:1007600033000002330018033300430B471E025CC2
:10077000072221401C88850040471C025C0722207C
:10078000157222015403000A000300140003001E26
:10079000000300EA31001B028507815114B81511CE
:1007A000443700C1003900C000390080013A000020
:1007B000006B0802A1072A572D0094002E00940018
:1007C0002E005F012E00DD0A630E02B8072A5DA924
:1007D00060160065001600DB00170065001700DBDF
:1007E000001F00DA00771203D1078DA408040492D9
:1007F0004C632603BA02A412090080402010400472
:1008000082092A3840632603BA02A00008049241F4
:100810002400400092092A3800632603BA02A0008F
:10082000082492410482000010492A3800632603FC
:10083000BA02A002080490412482000010492A381C
:1008400000632603BA02A4924920000004924800E3
:1008500000012A38404534023A00C0015155540481
:100860002C001515554040300062003000C5006274
:10087000004E038B018801A1078801434E036708DE
:1008800084920124120004800809924804904800D0
:1008900012002026492012412000480080802600B6
:1008A0001401A5009A009F019B00E6029A006721AF
:1008B000029E08C045020114080450006326035933
:1008C000068002492490000080000412492ABA00E0
:1008D0002B0079002B00DD2482002D0083002D00E9
:1008E000631802D0088C300DCC300C632603BA029A
:1008F000A000000492492482000010492A38001BFD
:10090000004C001B00B6001B00B7001B007F0C67EB
:100910002102FF08400208A2E0008228402500B51D
:1009200000250010014708021D091140632603122B
:1009300006A090000090000010400482092A3800B0
:10094000632603BA02A0820824104100000024920A
:10095000490A3800632603BA02A400410092082025
:1009600002000490492A3840330062003300C2007C
:100970006600A30386018601860187015F34036850
:10098000096000010410492482082A000004104173
:1009900024920820A0632603BA02A0920904004012
:1009A0002010400482092A38006F1603F10410A2B7
:1009B0006231985131180028001301A0009A00E01C
:1009C000019B00672202B7098045040114100450FE
:1009D00040632603BA02A082082410410490082034
:1009E00002410A3800001B028507815040B81504F7
:1009F0000830003400300099013000F8013000FA6E
:100A000026632802F10918461868471846186844F2
:100A10005800590058005A005800B3005800B82236
:100A2000B1005A00B100B3006F1803100A0A12494E
:100A30002AB2A12492A86F1803F1041092494633F8
:100A40000924946029002B00290080002900341D0E
:100A50005001AB005201A9006B6403440A6080009E
:100A60000000080000402000000412480412082A78
:100A7000020000000020000100800000104920104A
:100A800048208037003C003700A5003700EC08BD47
:100A900001B501C001B401672C03830A64000000A2
:100AA00000400080A100000000100020102A002E4D
:100AB000002A007E002A004D1B5B01B0005B01B1E3
:100AC000006B6403AD0A608208208241049200201A
:100AD00080400090400400412A020820820904124C
:100AE00048008201000241001001048038004500E6
:100AF0003800AE0038004510380071257003DE0064
:100B00007003B301672603EC0AA002400490092099
:100B100002000490492A38006726039E01800040A5
:100B20000412080492400000092ABA00672603C094
:100B300000A002000490492080400412092B3D00CF
:100B400058005A0058005B005800B50058001023A8
:100B5000B1005B00B100B5006F1403400B10AB1186
:100B60008CC2AC4600300064003000C80030001A6F
:100B70000490019001433402650BD54151401404A7
:100B80002D541514014041360038003600AA0036B5
:100B9000003F13C301BF01674402870BD10011005E
:100BA000040011556D100110004001155537003932
:100BB000003700A700370030117F03C0018103BF59
:100BC00001674403AD0B6090002080000402010027
:100BD00090482A0240008200001008040241208050
:100BE0006F1603F00010946231984A3118003800F3
:100BF0003A003800AE003800C5113800E824B801CA
:100C0000BE01672803EE0B80020000020004820090
:100C10000010492A17086726039E0180804004922D
:100C2000492092000400492ABA006726039E0184E5
:100C300080002410410080012412480ABA4067262F
:100C400003C000A000000492492400410092082B38
:100C50003D006726039E0180000004124824000026
:100C60000092492ABA002B00AB002D003C002D0059
:100C7000AA003600FD086F2202660C29596555EA64
:100C800056595570672603C000A000090492402001
:100C900000000492492B3D00560057005600020107
:100CA00056000A0D5A015C015C015B016334039834
:100CB0000C6402080002090412490A100820000806
:100CC00024104924106728038506800200000200D2
:100CD0000492000000492A9748632603BA02A40040
:100CE000490092002002000490492A3840632603FC
:100CF000BA02A480002012490492492000000A3858
:100D000040632603590680020004904924920000A3
:100D100000492ABA00672803850680000000000009
:100D20000492000000492A974867280385068090AE
:100D3000400090400492000000492A97483A003D44
:100D4000003A00D3003A006E25490044107303D3E3
:100D5000001A04EE016326033D0DA0000824924111
:100D60000082000410492E2800632603BA02A480E2
:100D7000002012490002000490492A3840632603EB
:100D800059068492492000000492000000492ABAC2
:100D900040672603C000A400000092492400000020
:100DA00092492B3D00380036003800A60038006913
:100DB0000F8003BA018003BB01634403A50D6000EB
:100DC000002002090402010090482A000000800867
:100DD0002410080402412080634403A50D609000A4
:100DE0002410000492000000492A024000904000B4
:100DF000124800000124802B002F002B005B002BE9
:100E000000842058002F008500850008015A000842
:100E1000015B006F2803F70DA40800000000642C9C
:100E2000408000000006412F0009013300360033E6
:100E3000006C00330007013300050833007F2D6488
:100E4000006D00831F03270E049249263589249ADA
:100E5000D62492482B00CE002E00CC002E00C801D4
:100E60002E00A00D771A02540E1A56A6D695A990F8
:100E70002C002D002C0083002C00261D5A01B000F0
:100E80005A01B2006B6403700E608000000008001D
:100E900000002000000412480412482A020000004A
:100EA0000020000000800000104920104920801818
:100EB00000BE00190050001900BE0019006710198B
:100EC00000BF12674003AF0E04925228928C4492E6
:100ED0008945245344925228928C44928945245146
:100EE00035003F003500AC003500781136000000B9
:100EF000C701D401674403E00E8490000490000011
:100F000080000412492A1240001240000200001022
:100F10004924B03200360032009F003200030946F7
:100F200003A601673402130FD400151025000544F1
:100F30000940015101672603C000A0004104920846
:100F40002490400002092B3D006726039E01840087
:100F5000480402010480090012402ABA402E00CE43
:100F6000002E00CB012E00770D771A025D0F0501D0
:100F7000518140544035003B003500AB003500FE48
:100F8000087F03C101675802750FD4550000401552
:100F90005400015556D455000040155400015555D4
:100FA0003500360035009C003500EE095303A901D9
:100FB0005503A801678803A00F6082082410410030
:100FC00012400480092A02082090410400490012BE
:100FD0000024A8082082410410012400480092A0A7
:100FE0002082090410400490012002481C005C008B
:100FF0001C00D5001C00D6001C00D30A772202EC8E
:101000000F68082000EA020800100F004C031000CF
:101010002D0210004C03100068147718020A101AF1
:101020009A9B9A9A99672603C000A00248049001EF
:101030002012400480092B3D003200360032009E11
:10104000003200A20132008B094B03A20167260384
:10105000391080800008124001C0400004092000BF
:101060000030002D0130008B023000E9033000B960
:101070000B6F2202611022200001C8880000406727
:1010800026039E01848000208249000200049049CA
:101090002ABA40672603C000A480410012082490A9
:1010A000400002092B3D00672603C000A00248044F
:1010B00090012000400492092B3D003100340031A2
:1010C0000066003100FA003100FC003100490931AE
:1010D00000E92E64003400640066007F1503BB1035
:1010E0004700233C0159E0040E00EB010E00E7022B
:1010F0000E003E13671802E8105540425540416704
:101100002603C000A0820824104104100120824858
:101110000B3D002F000B013200370032006E003211
:10112000000901320007083200552F64003900839E
:101130001F031311049249263472249AD1C892488D
:1011400032003200320063003200FB003200FC004B
:101150003200A5053200062B6600310066006200F1
:10116000732E034011470000000004646200E00099
:101170002B231007000080672603C000A010000486
:1011800082492002000490492B3D0035003500358E
:1011900000A0003500A1064603A6016734028B11AA
:1011A000D55015116554054459550151153100CDDF
:1011B000003100CE003100C80131006A0E771A02FA
:1011C000AD111A56A5D695A940300096003200956B
:1011D0000032005B013200780B670E02C9112A5DF4
:1011E000A960672603C000A0024004900920020005
:1011F0000490492B3D00672603C000A400490092DB
:10120000002002000490492B3D000E00EB010E006F
:10121000E7020E003A146718020A124550024550C0
:10122000010300EA030300D7050300F30B000B02E0
:1012300021120560540D00BD010D00A2020D00A396
:10124000020D00E71163180235126A8283AA8281B7
:10125000550059005500080155004A0D5B015E011B
:101260005C015E016F34035012609040208040208A
:1012700090412A024100820100824104802E002C0C
:101280000131002A01310088023100E5033100F00C
:101290000B771C037D120CB2CA49130B2CB292447B
:1012A000B06726039E01800000249209008200049A
:1012B00010492ABA000D047810100400005F0202E1
:1012C000B51210672603C000A00201049048200058
:1012D000000492492B3D009800D7019A009C009A87
:1012E00000D5019A00830B5F0A02D71216E5900F12
:1012F00000ED011000ED011000BA02100086057328
:101300001002EF1216AB56A90300F0010300E90228
:101310000300D00500110208134124124100672682
:10132000039E018000002482490480400012092AA3
:10133000BA00370037003700A7003700E111370047
:101340002225C001BD01C201BC0167280332138000
:1013500092000092000010400482092A97485B0026
:1013600058005B000B015B00250E690166016901F5
:1013700067017730035E1360000000124924924237
:101380008000000012492492405400580054000587
:10139000015400200D5B015B015B015C01673403BC
:1013A00089136082002080410490412A0208008253
:1013B0000104124104801000460311002E021100A6
:1013C00047031100B8187F1802B6131A9A9B9A9A0D
:1013D00099731002EF1226AB66AA31003500310076
:1013E0006800310006013100080131005E1F640011
:1013F00067007F0E03DA13401A2300D080672603AC
:101400009E018000002092490002400490092ABAFF
:101410000070006B0071006B00A502CE0A67040229
:101420001114266726039E018000002410490082C3
:10143000000410492ABA0036016502360166026EC0
:101440000278205F040237142632009E00350033F4
:101450000035009C00350084086722024914255994
:101460009A5AE9566696A06F1803F0001092542419
:10147000B309254248672202491425999A5AE96618
:101480006696A06726039E0180000024904100829A
:10149000000410492ABA002F000B01320037003235
:1014A000006E0032000901320007083200552F6437
:1014B00000390064007000831D03971404924926CC
:1014C0003251CBD64A39722F000B0132003700322D
:1014D000006E0032000901320007083200552F6407
:1014E000007000831F03C71404924926324A389AB9
:1014F000C928E2486728033213848200048200006E
:1015000082000410492A87415E00D9015E00D8029A
:1015100066006506670C02081541241231000701B8
:101520003200360032006C00320007013200ED0755
:101530003200D72764006E00671F031C1504924910
:10154000263449389AD124E2480400F3010400EE1D
:1015500002040087130017024915055406055404B8
:1015600000170249151454061454040E00EB010E22
:1015700000E7020E0046116718026B1545445645F8
:10158000445505003802050056030500871300176F
:10159000028215554546554544731002EF121957FE
:1015A00059556F1A03F10404924928C649249251EF
:1015B000800600360206005303060062150017027B
:1015C000B1150545460545440E004B0310002B029E
:1015D0001000490310002F13671802C8152A9A9BA0
:1015E000AA9A9A831F031311049249263251C89A6A
:1015F000C947224806009D0306003B050600320845
:101600000600E30A000C02F415900D0035003B00C3
:101610003500AA00350007117C03C0017D03C0011D
:101620006744030C16600000248009049200000047
:10163000492A00000092002412480000012480374B
:101640000039003700A700370040117F03C0018137
:1016500003BF016744033F16600000201009040225
:10166000010090482A000000804024100804024134
:1016700020801A00B9001B0050001B00B9001B009D
:10168000991067500272161A5A65679A659A9B9A62
:101690005A65679A659A9B9A5A6565330038003394
:1016A00000A20033001A0B5003AE015203AD0163D8
:1016B00044039B16608208241041048240001009F4
:1016C0002A020820904104120900004024801000E2
:1016D0002F0210004F0310000C1711002F021100F1
:1016E0004F03771803CE160E382182262082482316
:1016F0001000E4011000E2021000E3021000BB122F
:10170000671802F0166AA003AAA001300034003066
:1017100000A00030009001300048081F03900167CE
:1017200026030B1784824008924801C241200449D5
:101730002400401000530311002A0211005203112B
:101740000053031100EF12771803331745865B052A
:10175000C65B05B0420E00EB010E00E7020E00066C
:101760001467180255175550025550010E00EB0131
:101770000E00E7020E000A136718026C1745544268
:10178000455441672603A10384104008820801C222
:101790000820044104004003000900030013000373
:1017A000001D00030027000300F026001D0397170B
:1017B0006000880002E300044000160F008A000F5A
:1017C00000BE010F005D020F00A519671E02BB17C6
:1017D0008001002E000400A0300032003000940090
:1017E0003000950030009005631602D81748800E2F
:1017F00022001057007F025800130158007F026F2B
:101800000B02F317159A940300080003001200035B
:10181000001800030026000300F126001D0307182E
:101820006080880000E30404400006731002EF1299
:101830002AAB6AAA0D0060020E008D000E0028017E
:101840000E00C3010E005E020E0060020E003F1883
:10185000671E03341804944B24953524A25924A8F8
:1018600040731002EF1219AB59A9030008000300DE
:10187000120003001C000300BB31001B026A188029
:101880000100B85510082E0035002E006A002E0009
:1018900004012E00DE052E00D22A5D0035005D0019
:1018A0006A006F2E03861846800000000344520031
:1018B000000C22229000006080001B026A18800445
:1018C00000B85540080E00EB010E00E7020E004282
:1018D00012671802C518555006555005671802556D
:1018E000174554024554012C002F032D0010022DE2
:1018F000002F032D008813731802E718299A9BA95B
:101900009A9A0E00EB010E00E7020E00F916671816
:101910000202194440024440016726039E018410DC
:10192000002090010080400412092ABA403000F6DD
:101930000032002F0032005E003200F5003200D08D
:10194000053200DA2A64002F0064005E00673B0362
:101950002D190B12492492498D1C8927FCAB472273
:1019600049FF2AD1C8927FC90010004F0310000C14
:101970001711002F0211004E0311004F03771803B7
:1019800069196208A08A19040840830E00EB010E51
:1019900000E7020E000E126718028B194554164517
:1019A00054151800B9001B004E001B00B7001B00A7
:1019B0000606671602A21919955E6655502E005943
:1019C0000170008D03AB00DC00040126017F01B62D
:1019D00001DA010802D80D4A003002610278028C57
:1019E00002AC02D202FA024603B503E10305042960
:1019F000044C0479048B04AD04CF04DD0405051305
:101A0000053B0566058A05A505B905C105DD05EF98
:101A10000506062A064E0671069D06CD06DB06EF74
:101A2000060B072307340748076C0779079507B1AA
:101A300007C807E507F107050819082D08410855EB
:101A4000087B08AE08BC08E008EB080F0925092C44
:101A500009400954097C099509A909C309D109E577
:101A600009010A280A360A580A970AC10A040B18FB
:101A70000B2C0B580B750B970BC10BE00B020C16C4
:101A80000C2A0C3E0C520C760C840CAC0CC50CD9F8
:101A90000CED0C010D150D290D550D690D7D0D91E8
:101AA0000DB90D130E430E640E2E00840EC30EF4FA
:101AB0000E230F350F0401DC00490F690F850FB5A8
:101AC00003B40FFC0F1A1025104D1071107F1093E6
:101AD00010E103A710DB10F410FF102F1160117735
:101AE000119B11BD11D911E211F61116122D1245DB
:101AF0001264129112A112BD12C312E712FF121446
:101B0000131E134A1372139D13C613D113F213FD40
:101B1000131D14231443145914671475148314B734
:101B200014E314F414141538155515601577158E33
:101B3000159915A215BD15D815E3150416201653D1
:101B4000168216AF16E21600171F1747176117788F
:101B5000178317AB17CB17E817FF171B182B185055
:101B60001861187A18A218B918D118DC18F7180ECD
:101B70001919194D197D199719B2190011241FBE91
:101B8000CFE5D2E0DEBFCDBF10E0A0E6B0E0EEECE6
:101B9000FFE102C005900D92A236B107D9F710E01F
:101BA000A2E6B0E001C01D92A636B107E1F7B8D0B9
:101BB0000CC226C20F931F93082FA0916400B0910E
:101BC0006500F0916300E091620010E040E050E0B9
:101BD000682F70E0615070401CC0EE2321F4FD01BD
:101BE0001196F491E8E0E1508F2F90E00E2E02C0A4
:101BF000959587950A94E2F7817090709B01241B5C
:101C0000350B02C0880F991F2A95E2F7182B4F5FFA
:101C10005F4F401710F3B0936500A0936400F093FA
:101C20006300E0936200812F1F910F91089508C017
:101C300020E0000000002F5F2C30D9F70000019752
:101C40000097B1F708951ABC13BEC29AC09A04C097
:101C500088E893E1ECDFA895B19BFACF88E893E19F
:101C6000E6DFA99A8BB780628BBF789488E10FB6C4
:101C7000F89481BD11BC0FBE88EE93E0D8DF80E3FD
:101C800085BF889588EE93E0D2DFF89429E288E159
:101C900090E00FB6F894A89581BD0FBE21BD0895C0
:101CA000CF93DF939C01EB0112BE18BE442329F0B1
:101CB00082E48ABD81E083BF01C0C098C901B7DF5B
:101CC0001ABC13BEC09ACE01B2DFDF91CF91089546
:101CD000C29888EB9BE0ABDFC29A08951F93182F40
:101CE00004C0A89588E99AE3A2DFF2DF1150C9F792
:101CF000A8951F9108950F931F93082F10E00BC014
:101D0000C29880E593EC93DFA895C29A80E593ECA6
:101D10008EDFA8951F5F101798F31F910F910895FC
:101D20004F925F926F927F928F929F92AF92BF92EB
:101D3000CF92DF92EF92FF920F931F93CF93DF9397
:101D400010BE1ABC13BE24B714BE88E181BD11BCFD
:101D500085E087BB87E088BB30E0890104701070A4
:101D6000E901C170D07003C082E0C5DF6CDF0115EE
:101D7000110511F02097C1F384EC99E058DF772426
:101D800005C084EC99E053DF77247394B19BF9CFBD
:101D900010E004E0B19902C082E00EC088EE93E04A
:101DA00046DF812F6AE0DED0992311F406BBA895A7
:101DB0001F5F183C79F781E0C29A823051F500E04C
:101DC000DD24D39410E022C0CE018F709070892B57
:101DD00009F4A89588EE93E02ADFB1990DC001308F
:101DE00061F4D39484E0D81621F400E0DD24D39488
:101DF00001C000E010E005C001E02196C436D10525
:101E000019F78D2D6BDF1F5F153028F4C0E0D0E08F
:101E1000DBCFDD24D39429E288E190E00FB6F8947B
:101E2000A89581BD0FBE21BD40906000509061001B
:101E300080E0772011F0652C01C0642C882309F420
:101E40008DC0CC2481E0A82EB12CEE24FF2483C0C9
:101E5000A895772031F4F701E354F64E85919491DB
:101E600005C0F701ED55F54E85919491909365006D
:101E70008093640040916400509165009A012F5F47
:101E80003F4FFA01049109BDC9010196F9018490FF
:101E9000FC0194900196FC01C591D4914B5F5F4F7A
:101EA000509365004093640010E016C0892D82DED7
:101EB000880F880F90E0FE01E80FF91F25913491FB
:101EC000FC013296EC0FFD1F6591749140E0011109
:101ED00041E0C901E5DE1F5F181540F31092620072
:101EE000C298F2E0DF1639F083E0D81651F091E0A5
:101EF000D91649F502C0B19931C08CE49DE197DE55
:101F000022C0C5016AE070E039D0892B11F482E06B
:101F100001C081E0E3DEC0E0D0E010E0CE018F70D0
:101F20009070892B09F4A89588EE93E080DEB19B30
:101F300002C011E002C0113031F02196E1E0C43F4F
:101F4000DE0761F70BC0C3940894A11CB11C82E0AA
:101F500090E0E80EF91EC61408F47ACF74DE8FEF15
:101F600068CF1895991B79E004C0991F961708F05F
:101F7000961B881F7A95C9F78095089597FB092EBF
:101F800007260AD077FD04D00CD006D000201AF422
:101F9000709561957F4F0895F6F7909581959F4FC5
:101FA0000895AA1BBB1B51E107C0AA1FBB1FA617A0
:101FB000B70710F0A61BB70B881F991F5A95A9F7F2
:0E1FC00080959095BC01CD010895F894FFCF57
:021FCE00736C32
:00000001FF
