:10000000F8CC12CD95CDA5CD0FCD0ECDB3CD0CCD69
:100010000BCD0ACD09CD08CD07CD06CD05CD04CD3C
:1000200003CDCB00BA01C601D801030218022C028D
:100030003A0259026B028A029E02B002C402DD0239
:10004000F40208031C032A033E037603A103B5034D
:10005000C903DD03ED03FC03150427043904470439
:100060005504690477048B04B604CA04D504DD047E
:10007000E504F904FF0406051205260531054505CA
:10008000590567057B058F059705A805BC05D005B3
:10009000DD05E905F505FC05050611062506390609
:1000A0004D06610675068706AA06B806CC06D70671
:1000B000EB06FF0610071C07470764078307950731
:1000C000A907BD07C907E4071C082A08350849081D
:1000D0005D086B087F089308A708B408BF08D30819
:1000E000E408FB080F0921092D0936094A095E09B0
:1000F000690971097C099509A509B909BF09D309DD
:10010000DB09E409EE09020A160A2D0A460A510A19
:100110005A0A650A790A7F0A930A990AA70AB50A50
:10012000C30AD70AE70AF80A0C0B140B250B300B8D
:100130003B0B460B510B5A0B690B740B7F0B900B4F
:10014000980BB70BD60BEF0B0E0C1C0C270C3B0CB3
:10015000490C540C5F0C730C830C900C9B0CA30C7F
:10016000B30CBC0CCD0CD60CE20CF90C050D100D2B
:100170001B0D260D310D450D610D6F0D7A0D850D91
:10018000A40DB10DC50DD00DE10D030E100E1B0E0B
:10019000260E310E550E6E0E920E9D0EB10ED00E25
:1001A000E40EEF0EF70E0D0F230F2E0F390F440F35
:1001B0004F0F5A0F6E0F7C0F840F671A02950FE2D4
:1001C000208078882010453402A50FD541110014F5
:1001D000446D5411100144456B6403B50F608000F9
:1001E0000000080000002000000412480412482A01
:1001F00002000000002000000080000010492010D4
:10020000492080674002C90F155A656795659A9B1A
:10021000955A656795659A99672603D90FA00001DD
:100220000492482080400412092B3D006F1803F50A
:100230000F109249463309249460674403091064FF
:1002400090000490000080000412492A124000121D
:100250004000020000104924906522031D100994FB
:10026000532994D985328A65329B20674403311023
:100270006400490092002082010410482A100124E1
:10028000024800820804104120906726034510842C
:1002900090002080080000092492400ABA40673488
:1002A000025D10D4001510250005440940015101DC
:1002B0006726036D10A000410492082490400002BC
:1002C000092B3D00673403891064120824000820BC
:1002D00010092A10482090002080402490673003A5
:1002E0009D10801240040009001241248201001078
:1002F0004824AAE8672603D90FA0000904924024E5
:1003000080000012492B3D00672603D90FA0800111
:100310000412482400000092492B3D00732202B5CC
:1003200010540410009501040010632603C110A0AE
:1003300002480490012080400412092A380067888E
:1003400003D9106082082410410012400480092A59
:10035000020820904104004900120024A8082082CD
:10036000410410012400480092A02082090410409A
:10037000049001200248676403ED1060104004807F
:10038000090000000010002010002080000A004139
:1003900000120024000000004000804000820000A5
:1003A000006726030111A010000482492002000406
:1003B00090492B3D006726031D11801040088208DC
:1003C00001C00820044104000067260331118002A7
:1003D000400002400000012492480ABA00632C0247
:1003E0004911A11861A1187A11861A1186671A039A
:1003F0005911692410400312482080006734036DAE
:10040000116492490000000002492A1249240000A8
:1004100000000924906522038111099453653299E3
:1004200085328A6CA65320453402A50FC5411110B0
:1004300014446C5411110144446724029511C445BD
:1004400014046C445140446F1603A5110C9253469A
:10045000164929A2C06726034510800041041208EE
:100460002000000492492ABA006F1803B91106123D
:100470004946326124946067260345108000410498
:1004800012082080000412492ABA00676403CD11C3
:10049000601040048009000000001000208200204D
:1004A00000000A0041001200240000000040008209
:1004B000080080000000672603D90FA000410492C5
:1004C000082492480000012B3D005F1602E111163E
:1004D000665D5999506B0B02F111159A9C5F0B02E6
:1004E0000112804500632603C110A4104000820958
:1004F0002080400412092A38406304020D1211635F
:10050000080215120604331A022112E220807888AC
:1005100020006326033112A48000208249000200DB
:100520000490492A384063180249121575565575CA
:10053000546326035912849000000249208000046D
:1005400012492ABA40672803711280900000900077
:100550000492000000492A974887170389120B125A
:100560006344926B449250632603C110A000400480
:1005700092092492092000400A3800632603591288
:100580008000000492492492000000492ABA0057D2
:100590000B02A512141140473002AD12C0000155E4
:1005A0005552C00001555550632603C110A01001DB
:1005B0002482480002400490092A3800632603C1BF
:1005C00010A490480002012080400412092A3840FB
:1005D000471E02BD122221401C88850040471C0294
:1005E000BD1222201572220154001B02CD1281512E
:1005F00014B81511446B0802DD122A57630E02ED80
:10060000122A5DA960771203FD128DA408040492DA
:100610004C632603C110A41209008040201040043E
:1006200082092A3840632603C110A00008049241C1
:100630002400400092092A3800632603C110A0005C
:10064000082492410482000010492A3800632603DE
:10065000C110A002080490412482000010492A38E9
:1006600000632603C110A4924920000004924800B0
:1006700000012A3840453402A50FC00151555404E9
:100680002C001515554040434E031113849201244C
:1006900012000480080992480490480012002026A5
:1006A000492012412000480080806721022513C0A4
:1006B00045020114080450006326035912800249C0
:1006C0002490000080000412492ABA006318023501
:1006D000138C300DCC300C632603C110A000000435
:1006E00092492482000010492A38006F28034513DC
:1006F000A40800000000642C408000000006418334
:100700001F036113049249263589249AD6249248FE
:10071000771A027D131A56A6D695A9906B64038D9D
:100720001360800000000800000020000004124850
:100730000412482A0200000000200000008000008F
:1007400010492010492080674003A11304925228C9
:10075000928C44928945245344925228928C44921C
:1007600089452451674403B5138490000490000028
:1007700080000412492A12400012400002000010BA
:100780004924B0673402C913D4001510250005446C
:100790000940015101672603D90FA00041049208C6
:1007A0002490400002092B3D006726034510840079
:1007B000480402010480090012402ABA40771A0254
:1007C000D91305015181405440675802E513D455AF
:1007D000000040155400015556D4550000401554F2
:1007E00000015555678803F5136082082410410005
:1007F00012400480092A0208209041040049001296
:100800000024A8082082410410012400480092A07E
:100810002082090410400490012002487722020936
:100820001468082000EA0208001077180219141A48
:100830009A9B9A9A99672603D90FA00248049001BF
:100840002012400480092B3D006726032914808074
:100850000008124001C0400004092000006F22027D
:100860003D1422200001C88800004067260345107F
:100870008480002082490002000490492ABA40671F
:100880002603D90FA48041001208249040000209D9
:100890002B3D00672603D90FA002480490012000D9
:1008A000400492092B3D007F15034D144700233C63
:1008B0000159E0046718026D1455404255404167E4
:1008C0002603D90FA0820824104104100120824879
:1008D0000B3D00831F037914049249263472249A35
:1008E000D1C89248732E0395144700000000046499
:1008F0006200E0002B231007000080672603D90F59
:10090000A010000482492002000490492B3D00679A
:100910003402B514D550151165540544595501518B
:1009200015771A02C5141A56A5D695A940670E0266
:10093000D5142A5DA960672603D90FA00240049050
:10094000092002000490492B3D00672603D90FA41B
:1009500000490092002002000490492B3D006718D6
:1009600002E514455002455001000B02F1140560E8
:1009700054631802FD146A8283AA82816F34030DC6
:10098000156090402080402090412A024100820161
:100990000082410480771C0321150CB2CA49130B55
:1009A0002CB29244B06726034510800000249209BF
:1009B0000082000410492ABA005F02023515106750
:1009C0002603D90FA0020104904820000004924998
:1009D0002B3D005F0A023D1516E5907310024D1580
:1009E00016AB56A90011025D15412412410067267D
:1009F0000345108000002482490480400012092A27
:100A0000BA00672803691580920000920000104028
:100A10000482092A9748773003811560000000128C
:100A20004924924280000000124924924067340316
:100A300095156082002080410490412A02080082BE
:100A40000104124104807F1802A9151A9A9B9A9AF0
:100A5000997310024D1526AB66AA7F0E03B9154097
:100A60001A2300D080672603451080000020924999
:100A70000002400490092ABA00670402D1152667D3
:100A8000260345108000002410490082000410490C
:100A90002ABA005F0402DD1526672202E9152559EE
:100AA0009A5AE9566696A06F1803F50F10925424CF
:100AB000B309254248672202E91525999A5AE96641
:100AC0006696A067260345108000002490410082AE
:100AD000000410492ABA00831D03F915049249261F
:100AE0003251CBD64A3972831F0319160492492614
:100AF000324A389AC928E248672803691584820077
:100B00000482000082000410492A8741670C0235E4
:100B100016412412671F03411604924926344938AE
:100B20009AD124E2480017025D16055406055404C4
:100B30000017025D1614540614540467180269164F
:100B400045445645445500170275165545465545CA
:100B5000447310024D15195759556F1A03B91104F2
:100B6000924928C6492492518000170281160545F2
:100B7000460545446718028D162A9A9BAA9A9A83BD
:100B80001F037914049249263251C89AC947224852
:100B9000000C029D16900D00674403AD1660000026
:100BA0002480090492000000492A000000920024D9
:100BB00012480000012480674403C1166000002031
:100BC00010090402010090482A000000804024100F
:100BD000080402412080675002D5161A5A65679AA8
:100BE000659A9B9A5A65679A659A9B9A5A65656356
:100BF0004403E51660820824104104824000100975
:100C00002A0208209041041209000040248077182D
:100C100003F9160E38218226208248236718020D18
:100C2000176AA003AAA0016726031D178482400843
:100C3000924801C24120044924004077180331172B
:100C400045865B05C65B05B04267180245175550DF
:100C500002555001671802511745544245544167E7
:100C600026031D1184104008820801C20820044197
:100C7000040040001D035D176000880002E30004CB
:100C8000400016671E0271178001002E000400A0AC
:100C9000631602811748800E2200106F0B02911715
:100CA000159A94001D039D176080880000E30404DA
:100CB0004000067310024D152AAB6AAA671E03B1E5
:100CC0001704944B24953524A25924A8407310028C
:100CD0004D1519AB59A9001B02CD17800100B8555D
:100CE00010086F2E03DD17468000000003445200F9
:100CF000000C22229000006080001B02CD178004AF
:100D000000B8554008671802F917555006555005A8
:100D10006718024517455402455401731802051817
:100D2000299A9BA99A9A67180215184440024440D0
:100D300001672603451084100020900100804004C4
:100D400012092ABA40673B0321180B124924924921
:100D50008D1C8927FCAB472249FF2AD1C8927FC945
:100D60000077180341186208A08A190408408367B5
:100D7000180255184554164554156716026118197E
:100D8000955E6655506744037118641000041000A6
:100D90000080000412492A104000104000020000A8
:100DA000104924907F1503851822801A180110C05D
:100DB00002672803A11880020000020004920000CC
:100DC00000492A97487F0E03B915468023340080D6
:100DD000831F037914049249263471449AD1C512B1
:100DE00048434D03B9188492012412000480080975
:100DF0009248049048001200202649201241200009
:100E0000480082001D02CD188001002E00040080E1
:100E10007F0E03DD1822001A100040731802F1182B
:100E20002A9A9BAA9A9A67180201194444024444D8
:100E3000016752030D1909249249124A2492492448
:100E400092492494896924924922494492492492DE
:100E500049249291306734039515640009240009F0
:100E60002400092A10002490002490002490675246
:100E7000030D1904A4924922494892492492492415
:100E800094896894924924492912492492492492C8
:100E9000913063180221196AA00BAAA009672603E2
:100EA000311980104008924801C0082004492400EC
:100EB0000067440345198480002082490002000431
:100EC00090492A920000820924000800124124B0AF
:100ED000672603D90FA00000049249200000049265
:100EE000492B3D0067180245174440564440555F62
:100EF00008035D1905C459672D03711947000000E7
:100F000000008C8C4003F1EB231000FC74672D0370
:100F100071194700000000008C8C4003E3EB2310A4
:100F200000F8F467180291195555425555410017BC
:100F3000025D1605500605500467180269165554DF
:100F4000125554116318029D19400A83800A8100CA
:100F50001702AD19544546544544672603D90FA0DE
:100F600000000492492400000092492B3D006F16B6
:100F700003B91914954A359A4AA51B00000B02D1F2
:100F800019056054001E03DD1964924A2492E3247B
:100F900092512496003C003C003C008C0A78003CB6
:100FA00000F0003C00320064003200C80032002033
:100FB00003900190012A002E002A0085002A005F7C
:100FC0001D5B01B0005B01B1001A00B9001B0050AD
:100FD000001B00B9001B00C511370039003700AAFB
:100FE0000037006D0F37009725380000008203C5D9
:100FF000018403E20058005A0058005B005800B515
:101000000058001023B1005B0032003E003200ACFB
:10101000003200BD11C001D201C201D10131003145
:10102000003100320031009A013100FE0131004BE5
:101030002F38003A003800AA003800AB0F8203C2F4
:10104000018403C101350038003500AB0035006E66
:101050000F35007F258203C3018403E2003300378C
:101060000033009E003300EE084903A30137003728
:10107000003700AC003700C70F3700842438000069
:10108000007403BA017503E100510057005100FEDE
:10109000005100D00C4B0150014B0151013500377C
:1010A000003500A70035000009350099247D03C0F4
:1010B000017F03BF011C005A001C00D3001C00CBA1
:1010C00009380039003800AF003800361038001BEE
:1010D000258203E3008203C101330037003300A1FE
:1010E000003300060A5103AD015103AE0128002A66
:1010F0000028007C002800F9114501A3004601A347
:10110000003C0037003C00A3003C0003103C00E220
:10111000253D0000008203CD018403E60030003449
:10112000003000A0003000900130001F091F039024
:101130000135003C003500AF0035006F113500ED82
:10114000247C03C2017F03E10030003400300099A9
:10115000013000F8013000DD283A003C003A000977
:101160000A76003C00ED003C00EE003C0054005AC2
:10117000005400080154008E0D5A015E015B015EAF
:1011800001310031003100320031009A013100FE9E
:1011900001310026317600790076000F0176008E4D
:1011A0001202010F0158005A0058005B005800B5A8
:1011B00000B1005B00B10010235800590058005ADC
:1011C000005800B30058001123B1005A0028002B2A
:1011D0000028007A002800B1144E019C0050019BA9
:1011E0000060005D0061005D0061001F016100673B
:1011F0000D520045025400FA00540044025500000C
:101200000027000701A400A3000202A400710065EA
:1012100000B002930A710065007100C9007100936B
:101220000A3A003E003A00BA0A75003E00F2003E5B
:1012300000360041003600AA00360003103600DCFC
:10124000218303E2008303A5012B0078002B0079A2
:10125000002B00A30D83002D00330033003300A0CA
:10126000003300001033002925AF01B4017303DB04
:10127000003A0035003A00A7003A008E113A00CF3C
:1012800025C701C101C801C1013300150134003572
:101290000034006900340015013400DF093400090E
:1012A0003267003600120156031201C2075000587F
:1012B000005000FE005000A60E67014B013300E80D
:1012C0000033000002330018033300430B03000A0D
:1012D000000300140003001E000300EA313700C1C0
:1012E000003900C000390080013A0000002D009450
:1012F000002E0094002E005F012E00DD0A1600650E
:10130000001600DB00170065001700DB001F00DA85
:1013100000300062003000C50062004E038B01887F
:1013200001A107880126001401A5009A009F019BD6
:1013300000E6029A002B0079002B00DD2482002DAC
:101340000083002D002B002F002B005B002B00845E
:101350002058002F008500850008015A0008015B15
:10136000002F0009013300360033006C0033000702
:10137000013300050833007F2D64006D002B00CE83
:10138000002E00CC002E00C8012E00A00D2C002D38
:10139000002C0083002C00261D5A01B0005A01B217
:1013A000001800BE00190050001900BE00190067A7
:1013B000101900BF1235003F003500AC0035007831
:1013C0001136000000C701D4013200360032009F00
:1013D00000320003094603A6012E00CE002E00CBEA
:1013E000012E00770D35003B003500AB003500FEC7
:1013F000087F03C1013500360035009C003500EE42
:10140000095303A9015503A8011C005C001C00D569
:10141000001C00D6001C00D30A0F004C0310002D46
:101420000210004C03100068143200360032009E97
:10143000003200A20132008B094B03A20130002DC3
:101440000130008B023000E9033000B90B31003469
:1014500000310066003100FA003100FC0031004923
:10146000093100E92E64003400640066000E00EBD0
:10147000010E00E7020E003E132F000B0132003771
:101480000032006E003200090132000708320055B8
:101490002F6400390032003200320063003200FB5A
:1014A000003200FC003200A5053200062B66003138
:1014B0000066006200350035003500A0003500A14F
:1014C000064603A6013100CD003100CE003100C830
:1014D0000131006A0E300096003200950032005B48
:1014E000013200780B0E00EB010E00E7020E003A0D
:1014F000140300EA030300D7050300F30B0D00BD3E
:10150000010D00A2020D00A3020D00E711550059C4
:10151000005500080155004A0D5B015E015C015E4B
:10152000012E002C0131002A01310088023100E532
:10153000033100F00B0D047810100400009800D760
:10154000019A009C009A00D5019A00830B0F00EDD0
:10155000011000ED011000BA02100086050300F032
:10156000010300E9020300D005370037003700A768
:10157000003700E11137002225C001BD01C201BCC6
:10158000015B0058005B000B015B00250E690166E2
:1015900001690167015400580054000501540020FE
:1015A0000D5B015B015B015C011000460311002E25
:1015B00002110047031100B81831003500310068EE
:1015C00000310006013100080131005E1F64006730
:1015D0000070006B0071006B00A502CE0A36016539
:1015E00002360166026E02782032009E003500331A
:1015F0000035009C00350084082F000B01320037B5
:101600000032006E00320009013200070832005536
:101610002F64003900640070002F000B0132003786
:101620000032006E00320009013200070832005516
:101630002F640070005E00D9015E00D8026600656C
:1016400006310007013200360032006C003200071C
:10165000013200ED073200D72764006E000400F36A
:10166000010400EE02040087130E00EB010E00E7F8
:10167000020E0046110500380205005603050087DA
:10168000130600360206005303060062150E004BD7
:101690000310002B021000490310002F1306009DB9
:1016A0000306003B05060032080600E30A35003B4E
:1016B000003500AA00350007117C03C0017D03C07E
:1016C00001370039003700A700370040117F03C001
:1016D000018103BF011A00B9001B0050001B00B9B3
:1016E000001B009910330038003300A20033001AA9
:1016F0000B5003AE015203AD0110002F0210004F3A
:101700000310000C1711002F0211004F031000E40A
:10171000011000E2021000E3021000BB123000349E
:10172000003000A00030009001300048081F0390F6
:10173000011000530311002A02110052031100533B
:10174000031100EF120E00EB010E00E7020E00067F
:10175000140E00EB010E00E7020E000A130300094D
:10176000000300130003001D00030027000300F026
:10177000260F008A000F00BE010F005D020F00A5BA
:101780001930003200300094003000950030009095
:101790000557007F025800130158007F020300081C
:1017A000000300120003001800030026000300F1EC
:1017B000260D0060020E008D000E0028010E00C3F1
:1017C000010E005E020E0060020E003F18030008CA
:1017D000000300120003001C000300BB312E003583
:1017E000002E006A002E0004012E00DE052E00D21D
:1017F0002A5D0035005D006A000E00EB010E00E777
:10180000020E0042122C002F032D0010022D002F7B
:10181000032D0088130E00EB010E00E7020E00F905
:10182000163000F60032002F0032005E003200F564
:10183000003200D0053200DA2A64002F0064005E16
:101840000010004F0310000C1711002F0211004E62
:101850000311004F030E00EB010E00E7020E000E15
:10186000121800B9001B004E001B00B7001B000639
:1018700006380037003800A8003800F212BF01C552
:1018800001C001C501310034003100FA003100FC13
:1018900000310049093100E92E640034006400661B
:1018A00000370037003700A70037009F13370022AA
:1018B00025C001BD01C201BC01300062003000C47E
:1018C00000610044038B0184018B0785010300093B
:1018D0000003001F0003002A000300CD2A31003559
:1018E00000310006013100080131005E1F6400670D
:1018F000002C002F032D0010022D002F032D006956
:10190000120E00EB010E00E7020E00361513004E1A
:101910000015001B0015004D001500C90E16000033
:10192000000D00EA010D00E5020D00E6020D004386
:10193000153200360032009E0032009701320069F5
:10194000084B039701370038003700A800370059CB
:101950000F380000007203C6017403C4019800D759
:10196000019A009C009A00D5019A000E039A008308
:101970000B32003200320063003200FB003200FC08
:10198000003200A9053200062B66003100660062B5
:10199000000E00EB010E00E7020E004A100D00EAF7
:1019A000010D00E5020D00E6020D003317060036BA
:1019B00002060053030600441456005B0057005A09
:1019C000005700B4005700A42258000000AE005A8F
:1019D0000004000C040400E3050400BD0B0000003B
:1019E000000E008D000E00C4010E005F020E00A666
:1019F000180011241FBECFE5D2E0DEBFCDBF10E03E
:101A0000A0E6B0E0E8EDFEE102C005900D92A03640
:101A1000B107D9F710E0A0E6B0E001C01D92A636EC
:101A2000B107E1F7DBD156C2EBC207C02CE00000E2
:101A300000002150E1F7000001970097B9F70895E1
:101A400010BE13BEC298BA98D0981CB81FBC1EBC5A
:101A50001BBC1ABC8FEF8BBB88E10FB6F89481BD1D
:101A600011BC0FBE88EE93E0E0DF80E385BF889570
:101A70008AE090E0DADF80E88BBB84E08BBD81EE0A
:101A80008ABD1FBC8BE08EBD82E08CB90895CF93D8
:101A9000DF93EB0112BE18BE442329F022E420BFDD
:101AA00021E023BF01C0C298C0DF10BE13BEC29A9E
:101AB000CE01BBDFDF91CF910895CF93DF93982FB5
:101AC000F09165006091620070916300E0916000A8
:101AD000A0E0B0E080E0C92FD0E021971CC0FF2338
:101AE00029F4FB016F5F7F4FE491F8E0F1504E2F36
:101AF00050E00F2E02C0559547950A94E2F74170C9
:101B000050709E012A1B3B0B02C0440F551F2A95A3
:101B1000E2F7842B1196A91710F3F09365007093E8
:101B2000630060936200E0936000DF91CF910895BD
:101B30001F920F920FB60F9211248F938091640021
:101B40008160809364008F910F900FBE0F901F9063
:101B500018951F920F920FB60F9211248F938091B8
:101B600064008260809364008F910F900FBE0F908D
:101B70001F9018951F920F920FB60F9211242F935A
:101B80008F939F932BB39AB3DF9AD79889B38078BA
:101B90002BBB9ABB9091610097FD0AC0882341F44A
:101BA000809161008F37B1F0809161008F5F0DC02F
:101BB00090916100191664F0882351F080916100C2
:101BC000803841F08091610081508093610002C0B3
:101BD000109261009F918F912F910F900FBE0F90E7
:101BE0001F9018956F927F928F929F92AF92BF92A3
:101BF000CF92DF92EF92FF920F931F93CF93DF93D9
:101C0000E2E2F0E085909490C29ABA9A1BBA88EA10
:101C100091E60BDFCC24DD2400E010E021E0622E11
:101C2000712C6EC0809161008E3794F0109261002B
:101C30008AEA08C08091610082332CF01092610022
:101C40008AB380958ABB809161008D3F9CF75CC010
:101C5000C601B4010ED1C30102C0880F991F6A9555
:101C6000E2F7BC018150909161009F3C1CF41092FE
:101C70006100862B8ABB10926500A895F801EE0FD3
:101C8000FF1FEC5DFF4F25913491C9010196F901C9
:101C9000D491D6BFFC01A4900196FC01B490F90147
:101CA0003396859194917C01C901059690936300C8
:101CB00080936200C0E019C08B2DFFDE880F880F73
:101CC000282F30E0F701E20FF31F859194912E5FEA
:101CD0003F4F2E0D3F1DF90125913491B90141E08F
:101CE000DD2309F440E0D3DECF5FCA1529F788E889
:101CF00093E19BDE0F5F1F4F88E090E0C80ED91E76
:101D00000815190509F08ECFC298BA981ABA80E85A
:101D10008BBB8FEF9FEF89DEC4E0D0E003C088E982
:101D20009AE383DEA895D09A88EB9BE07EDED0987C
:101D30002197A9F7DF91CF911F910F91FF90EF901D
:101D4000DF90CF90BF90AF909F908F907F906F90DB
:101D50000895DF92EF92FF920F931F93CF93DF933B
:101D6000D82E80E090E0A1D08C0182E090E09DD060
:101D70007C0184E090E099D0EC011BBA1ABAA895D6
:101D8000C80153DE10926400A895DD20C9F000E080
:101D900010E00AC0C8018A5F9F4F7FD080958ABB40
:101DA000C70143DE0F5F1F4F0C171D0799F70BC0CC
:101DB000CE018A5F9F4F71D080958ABBC70135DE07
:101DC0002197D7FFF5CF1ABA80E88BBBDF91CF916F
:101DD0001F910F91FF90EF90DF9008951ABA90E84D
:101DE0009BBB17BA18BA10BE13BE84E08BBD21EEA0
:101DF0002ABD1FBC2BE02EBD22E02CB924B714BE97
:101E000038E131BD11BC92BB80BD8BB780638BBF05
:101E1000789422FF0FC0A895D19A82E390E005DE66
:101E2000D19880E593EC01DED19A82E390E0FDDD6C
:101E3000D19806DE88E893E1F8DDC8E1D0E019E248
:101E4000FFDD0FB6F894A895C1BD0FBE11BD10926D
:101E500061008091640081FF04C086B3847079DFE3
:101E6000EFCF8091640080FFEBCFBCDE1092640066
:101E7000E7CFAA1BBB1B51E107C0AA1FBB1FA617B8
:101E8000B70710F0A61BB70B881F991F5A95A9F723
:101E900080959095BC01CD010895E199FECF9FBB3F
:101EA0008EBBE09A99278DB30895A8E1B0E042E097
:101EB00050E002C0DC01CB01FC01E199FECF06C07D
:101EC000FFBBEEBBE09A31960DB20D9241505040EF
:081ED000B8F70895F894FFCF64
:00000001FF
