:1000000010C017C016C015C014C013C012C011C054
:1000100010C00FC00EC00DC00CC00BC00AC009C07C
:1000200008C011241FBECFE5D2E0DEBFCDBF10D087
:1000300032C0E6CF08C020E0000000002F5F2C3067
:10004000D9F7000001970097B1F708958ABB08958A
:100050000F931F93CF93DF931BBA84E087BB10E00D
:1000600001E0C1E0D0E0C298C29A100F18301CF035
:1000700017E00FEF04C017FF02C010E001E0CE014F
:10008000012E02C0880F991F0A94E2F78ABB8AE00A
:0A00900090E0D0DFE8CFF894FFCF36
:00000001FF
